:020000040800F2
:1000000000500020210A0008B1090008B7090008C3
:10001000BD090008C3090008C90900080000000064
:10002000000000000000000000000000CF090008F0
:10003000DB09000800000000E7090008F3090008D8
:10004000690A0008690A0008690A0008690A0008C4
:10005000690A0008690A0008690A0008690A0008B4
:10006000690A0008690A0008690A0008690A0008A4
:10007000690A0008690A0008690A0008690A000894
:10008000690A0008690A0008690A0008690A000884
:10009000690A0008690A0008690A0008690A000874
:1000A000690A0008010A0008690A0008690A0008CC
:1000B000690A0008690A0008690A0008690A000854
:1000C000690A0008690A0008690A0008690A000844
:1000D000690A0008690A0008690A0008690A000834
:1000E000690A0008690A0008690A0008000000009F
:1000F0000000000000000000000000000000000000
:0C01000000000000000000005FF808F1A3
:10010C0010B5054C237833B9044B13B10448AFF345
:10011C0000800123237010BD10000020000000009F
:10012C00D427000808B5034B1BB103490348AFF3B0
:10013C00008008BD0000000014000020D427000837
:10014C0080F0004002E000BF81F0004142001FBF80
:10015C005FEA410392EA030F7FEA226C7FEA236C89
:10016C006AD04FEA1262D2EB1363C1BFD21841407E
:10017C0048404140B8BF5B42192B88BF704710F014
:10018C00004F40F4000020F07F4018BF404211F0B7
:10019C00004F41F4000121F07F4118BF494292EA1F
:1001AC00030F3FD0A2F1010241FA03FC10EB0C004B
:1001BC00C3F1200301FA03F100F0004302D54942D8
:1001CC0060EB4000B0F5000F13D3B0F1807F06D385
:1001DC0040084FEA310102F10102FE2A51D2B1F17D
:1001EC00004F40EBC25008BF20F0010040EA030072
:1001FC007047490040EB0000013A28BFB0F5000FF2
:10020C00EDD2B0FA80FCACF1080CB2EB0C0200FAA7
:10021C000CF0AABF00EBC25052421843BCBFD040F6
:10022C001843704792F0000F81F4000106BF80F470
:10023C0000000132013BB5E74FEA41037FEA226C33
:10024C0018BF7FEA236C21D092EA030F04D092F0FE
:10025C00000F08BF0846704790EA010F1CBF002032
:10026C00704712F07F4F04D1400028BF40F000408F
:10027C00704712F100723CBF00F50000704700F0AF
:10028C00004343F0FE4040F4000070477FEA2262D6
:10029C0016BF08467FEA23630146420206BF5FEAA7
:1002AC00412390EA010F40F4800070474FF00003A7
:1002BC0004E000BF10F0004348BF40425FEA000C6E
:1002CC0008BF704743F0964301464FF000001CE016
:1002DC0050EA010208BF70474FF000030AE000BF6C
:1002EC0050EA010208BF704711F0004302D54042AA
:1002FC0061EB41015FEA010C02BF8446014600201C
:10030C0043F0B64308BFA3F18053A3F50003BCFA36
:10031C008CF2083AA3EBC25310DB01FA02FC6344E3
:10032C0000FA02FCC2F12002BCF1004F20FA02F2EA
:10033C0043EB020008BF20F00100704702F12002DD
:10034C0001FA02FCC2F1200250EA4C0021FA02F23E
:10035C0043EB020008BF20EADC7070474FF0FF3C13
:10036C0006E000BF4FF0010C02E000BF4FF0010CA3
:10037C004DF804CD4FEA40024FEA41037FEA226C6C
:10038C0018BF7FEA236C11D001B052EA530C18BF8E
:10039C0090EA010F58BFB2EB030088BFC81738BFF3
:1003AC006FEAE17018BF40F0010070477FEA226CE1
:1003BC0002D15FEA402C05D17FEA236CE4D15FEADD
:1003CC00412CE1D05DF8040B704700BF8446084611
:1003DC006146FFE70FB5FFF7C9FF002848BF10F1D2
:1003EC00000F0FBD4DF808EDFFF7F4FF0CBF012017
:1003FC0000205DF808FB00BF4DF808EDFFF7EAFFA1
:10040C0034BF012000205DF808FB00BF4DF808ED5B
:10041C00FFF7E0FF94BF012000205DF808FB00BF50
:10042C004DF808EDFFF7D2FF94BF012000205DF8D6
:10043C0008FB00BF4DF808EDFFF7C8FF34BF0120E3
:10044C0000205DF808FB00BF4FEA4002B2F1FE4FFE
:10045C000FD34FF09E03B3EB12620DD94FEA00237A
:10046C0043F0004310F0004F23FA02F018BF404253
:10047C0070474FF00000704712F1610F01D142023A
:10048C0005D110F0004008BF6FF0004070474FF0EE
:10049C000000704780B586B000AF78607868FFF7D1
:1004AC0009FF02462F4B1B6819461046FFF7C2FF87
:1004BC000346002B06D02B4B1B681846FFF7C4FFD6
:1004CC0003467B607B68002B01DA00237B60264BA4
:1004DC001B687A68D31A7B617B69002B05DD0122CE
:1004EC000821224800F0D4FD0AE07B69002B35DAA4
:1004FC00002208211D4800F0CBFD7B695B427B612B
:10050C0000233B6122E001220421184800F0C0FDC9
:10051C000023FB6003E000BFFB680133FB60FB685A
:10052C00B3F5FA5FF7DB00220421104800F0B0FDB0
:10053C000023BB6003E000BFBB680133BB60BB683A
:10054C00B3F5FA5FF7DB3B6901333B613A697B69D1
:10055C009A42D8DB044A7B68136000E000BF18376E
:10056C00BD4680BD000000202C000020000801408A
:10057C0080B582B000AF0346FB71FB79012B05D12E
:10058C00084B1B684FF42F725A6304E0054B1B6831
:10059C004FF4FA725A63C82000F0C4FA00BF08374F
:1005AC00BD4680BD3000002080B500AF00F058FA89
:1005BC0000F020F800F004F900F062F800210B487C
:1005CC0001F01CFA4FF40051094800F079FD0120AC
:1005DC00FFF7CEFF40F6B83000F0A4FA0020FFF78A
:1005EC00C7FF41F23600FFF755FFEBE73000002064
:1005FC000010014080B590B000AF07F1180328221D
:10060C000021184602F0D8F83B1D00221A605A60EF
:10061C009A60DA601A610123BB614FF48033FB618D
:10062C0000233B620123BB6202237B634FF48033C4
:10063C00BB634FF4E013FB6307F11803184600F09B
:10064C0059FD0346002B01D000F01AF90F237B60F3
:10065C000223BB600023FB604FF480633B610023EB
:10066C007B613B1D0221184600F0C4FF0346002BA2
:10067C0001D000F005F900BF4037BD4680BD000039
:10068C0080B596B000AF07F1480300221A605A609B
:10069C009A60DA6007F1400300221A605A6007F191
:1006AC00240300221A605A609A60DA601A615A6157
:1006BC009A613B1D20220021184602F07DF83E4B2A
:1006CC003E4A1A603C4B47225A603B4B00229A60D0
:1006DC00394B44F61F62DA60374B00221A61364BF5
:1006EC0000225A61344B00229A61334801F0DEF843
:1006FC000346002B01D000F0C3F84FF48053BB64C9
:10070C0007F1480319462C4801F0CCFB0346002B9B
:10071C0001D000F0B5F8284801F017F90346002B7A
:10072C0001D000F0ADF800233B6400237B6407F19B
:10073C0040031946204801F059FF0346002B01D015
:10074C0000F09EF860237B620023BB620023FB62F7
:10075C0000233B6300237B630023BB630023FB6309
:10076C0007F1240300221946134801F0D9FA034675
:10077C00002B01D000F084F800237B600023BB60C9
:10078C000023FB6000233B6100237B614FF400538B
:10079C00BB6100233B623B1D1946074801F084FFF7
:1007AC000346002B01D000F06BF8034800F0C6F8AC
:1007BC0000BF5837BD4680BD30000020002C0140E2
:1007CC0080B588B000AF07F1100300221A605A60A0
:1007DC009A60DA60274B9B69264A43F010039361B9
:1007EC00244B9B6903F01003FB60FB68214B9B6956
:1007FC00204A43F0200393611E4B9B6903F02003B6
:10080C00BB60BB681B4B9B691A4A43F004039361A2
:10081C00184B9B6903F004037B607B6800224FF448
:10082C000051154800F034FC00221F21134800F041
:10083C002FFC4FF400533B6101237B610023BB6110
:10084C000223FB6107F1100319460B4800F09CFAD8
:10085C001F233B6101237B610023BB610223FB61EE
:10086C0007F110031946054800F08EFA00BF203737
:10087C00BD4680BD00100240001001400008014040
:10088C0080B400AF72B600BFFEE7000080B485B044
:10089C0000AF154B9B69144A43F001039361124B53
:1008AC009B6903F00103BB60BB680F4BDB690E4A0D
:1008BC0043F08053D3610C4BDB6903F080537B60B6
:1008CC007B680A4B5B68FB60FB6823F0E063FB60B2
:1008DC00FB6843F00073FB60044AFB68536000BF85
:1008EC001437BD4680BC7047001002400000014028
:1008FC0080B584B000AF78607B681B680D4A93426A
:10090C0013D10D4B9B690C4A43F4006393610A4B62
:10091C009B6903F40063FB60FB6800220021192033
:10092C0000F0FBF9192000F014FA00BF1037BD4697
:10093C0080BD00BF002C01400010024080B588B083
:10094C0000AF786007F1100300221A605A609A60B9
:10095C00DA607B681B68104A934218D10F4B9B6975
:10096C000E4A43F0040393610C4B9B6903F00403A0
:10097C00FB60FB684FF480733B6102237B610223B5
:10098C00FB6107F110031946054800F0FDF900BFA3
:10099C002037BD4680BD00BF002C01400010024036
:1009AC000008014080B400AFFEE780B400AFFEE762
:1009BC0080B400AFFEE780B400AFFEE780B400AFB8
:1009CC00FEE780B400AF00BFBD4680BC704780B46A
:1009DC0000AF00BFBD4680BC704780B400AF00BF05
:1009EC00BD4680BC704780B500AF00F07FF800BFFB
:1009FC0080BD000080B500AF024801F0A1F800BF37
:100A0C0080BD00BF3000002080B400AF00BFBD46E9
:100A1C0080BC7047FFF7F8FF0B480C490C4A0023C9
:100A2C0002E0D458C4500433C4188C42F9D3094A98
:100A3C00094C002301E013600432A242FBD301F005
:100A4C0097FEFFF7B1FD704700000020100000205A
:100A5C0018280008100000207C000020FEE7000091
:100A6C0080B500AF084B1B68074A43F010031360B6
:100A7C00032000F047F90F2000F008F8FFF706FFFD
:100A8C000023184680BD00BF0020024080B582B014
:100A9C0000AF7860124B1A68124B1B7819464FF452
:100AAC007A73B3FBF1F3B2FBF3F3184600F05FF982
:100ABC000346002B01D001230EE07B680F2B0AD8D4
:100ACC00002279684FF0FF3000F027F9064A7B6866
:100ADC001360002300E0012318460837BD4680BD93
:100AEC00040000200C0000200800002080B400AF9F
:100AFC00054B1B781A46054B1B681344034A1360BD
:100B0C0000BFBD4680BC70470C0000207800002060
:100B1C0080B400AF024B1B681846BD4680BC7047C2
:100B2C007800002080B584B000AF7860FFF7F0FF4C
:100B3C00B8607B68FB60FB68B3F1FF3F05D00A4BE4
:100B4C001B781A46FB681344FB6000BFFFF7E0FFFD
:100B5C000246BB68D31AFA689A42F7D800BF00BFA6
:100B6C001037BD4680BD00BF0C00002080B485B09E
:100B7C0000AF78607B6803F00703FB600C4BDB680D
:100B8C00BB60BA684FF6FF031340BB60FB681A02E8
:100B9C00BB68134343F0BF6343F40033BB60044AA8
:100BAC00BB68D36000BF1437BD4680BC704700BF24
:100BBC0000ED00E080B400AF044BDB681B0A03F0CF
:100BCC0007031846BD4680BC704700BF00ED00E02F
:100BDC0080B483B000AF0346FB7197F90730002B4C
:100BEC000BDBFB7903F01F02064997F907305B0911
:100BFC00012000FA02F241F8232000BF0C37BD4659
:100C0C0080BC704700E100E080B483B000AF0346C5
:100C1C003960FB7197F90730002B0ADB3B68DAB2BD
:100C2C000C4997F907301201D2B20B4483F8002318
:100C3C000AE03B68DAB20849FB7903F00F03043B86
:100C4C001201D2B20B441A7600BF0C37BD4680BCE1
:100C5C00704700BF00E100E000ED00E080B489B017
:100C6C0000AFF860B9607A60FB6803F00703FB61C2
:100C7C00FB69C3F10703042B28BF0423BB61FB6989
:100C8C000433062B02D9FB69033B00E000237B6194
:100C9C004FF0FF32BB6902FA03F3DA43BB681A4028
:100CAC007B699A404FF0FF317B6901FA03F3D9431A
:100CBC007B680B40134318462437BD4680BC7047F5
:100CCC0080B582B000AF78607B68013BB3F1807F68
:100CDC0001D301230FE00A4A7B68013B53600F21CB
:100CEC004FF0FF30FFF790FF054B00229A60044B4A
:100CFC0007221A60002318460837BD4680BD00BF86
:100D0C0010E000E080B582B000AF78607868FFF743
:100D1C002DFF00BF0837BD4680BD80B586B000AF43
:100D2C000346B9607A60FB7300237B61FFF742FFD7
:100D3C0078617A68B9687869FFF790FF024697F98D
:100D4C000F3011461846FFF75FFF00BF1837BD463E
:100D5C0080BD80B582B000AF0346FB7197F90730B8
:100D6C001846FFF735FF00BF0837BD4680BD80B57C
:100D7C0082B000AF78607868FFF7A2FF0346184690
:100D8C000837BD4680BD000080B48BB000AF7860E2
:100D9C00396000237B6200233B6269E101227B6A9C
:100DAC0002FA03F3FB613B681B68FA691340BB61F1
:100DBC00BA69FB699A4240F058813B685B689A4A71
:100DCC0093425ED0984A934275D8984A934258D031
:100DDC00964A93426FD8964A934252D0944A934281
:100DEC0069D8944A93424CD0924A934263D8924A1F
:100DFC00934246D0904A93425DD8122B2AD8122B9C
:100E0C0059D801A252F823F08F0E0008690E000881
:100E1C007B0E0008BD0E0008C30E0008C30E0008B0
:100E2C00C30E0008C30E0008C30E0008C30E000852
:100E3C00C30E0008C30E0008C30E0008C30E000842
:100E4C00C30E0008C30E0008C30E0008710E000884
:100E5C00850E0008794A934213D02CE03B68DB687E
:100E6C003B6229E03B68DB6804333B6224E03B686F
:100E7C00DB6808333B621FE03B68DB680C333B628A
:100E8C001AE03B689B68002B02D104233B6213E001
:100E9C003B689B68012B05D108233B627B68FA6990
:100EAC001A6109E008233B627B68FA695A6103E026
:100EBC0000233B6200E000BFBB69FF2B01D87B68BD
:100ECC0001E07B6804337B61BB69FF2B02D87B6A32
:100EDC009B0002E07B6A083B9B003B617B691A68C4
:100EEC000F213B6901FA03F3DB431A40396A3B6972
:100EFC0001FA03F31A437B691A603B685B6803F0E1
:100F0C008053002B00F0B1804D4B9B694C4A43F051
:100F1C00010393614A4B9B6903F00103BB60BB68FF
:100F2C00484A7B6A9B08023352F82330FB607B6A89
:100F3C0003F003039B000F2202FA03F3DB43FA686E
:100F4C001340FB607B68404A934213D07B683F4A56
:100F5C0093420DD07B683E4A934207D07B683D4A52
:100F6C00934201D1032306E0042304E0022302E0B0
:100F7C00012300E000237A6A02F0030292009340FE
:100F8C00FA681343FB602F497B6A9B080233FA68AB
:100F9C0041F823203B685B6803F48013002B06D0D8
:100FAC002D4B9A682C49BB6913438B6006E02A4B86
:100FBC009A68BB69DB43284913408B603B685B68CC
:100FCC0003F40013002B06D0234BDA682249BB69CB
:100FDC001343CB6006E0204BDA68BB69DB431E4948
:100FEC001340CB603B685B6803F40033002B06D0E6
:100FFC00194B5A681849BB6913434B6006E0164BF2
:10100C005A68BB69DB43144913404B603B685B680F
:10101C0003F48033002B21D00F4B1A680E49BB69A7
:10102C0013430B6021E000BF0000321000003110B0
:10103C0000002210000021100000121000001110FE
:10104C00001002400000014000080140000C01406B
:10105C000010014000140140000401400B4B1A68C1
:10106C00BB69DB43094913400B607B6A01337B622C
:10107C003B681A687B6A22FA03F3002B7FF48EAE6E
:10108C0000BF00BF2C37BD4680BC70470004014038
:10109C0080B483B000AF78600B467B8013467B70C6
:1010AC007B78002B03D07A887B681A6103E07B88FD
:1010BC001A047B681A6100BF0C37BD4680BC7047B0
:1010CC0080B485B000AF78600B467B807B68DB68B2
:1010DC00FB607A88FB6813401A04FB68D9437B8851
:1010EC000B401A437B681A6100BF1437BD4680BCA5
:1010FC007047000080B586B000AF78607B68002B2D
:10110C0001D101236CE27B681B6803F00103002B07
:10111C0000F08780924B5B6803F00C03042B0CD01F
:10112C008F4B5B6803F00C03082B12D18C4B5B6864
:10113C0003F48033B3F5803F0BD1894B1B6803F468
:10114C000033002B6CD07B685B68002B68D10123CB
:10115C0046E27B685B68B3F5803F06D1804B1B6829
:10116C007F4A43F4803313602EE07B685B68002B6E
:10117C000CD17B4B1B687A4A23F480331360784B79
:10118C001B68774A23F4802313601DE07B685B683F
:10119C00B3F5A02F0CD1724B1B68714A43F480231A
:1011AC0013606F4B1B686E4A43F4803313600BE083
:1011BC006B4B1B686A4A23F480331360684B1B68C3
:1011CC00674A23F4802313607B685B68002B13D081
:1011DC00FFF79EFC386108E0FFF79AFC02463B697A
:1011EC00D31A642B01D90323FAE15D4B1B6803F47A
:1011FC000033002BF0D014E0FFF78AFC386108E0D4
:10120C00FFF786FC02463B69D31A642B01D90323F2
:10121C00E6E1534B1B6803F40033002BF0D100E0E4
:10122C0000BF7B681B6803F00203002B63D04C4BA0
:10123C005B6803F00C03002B0BD0494B5B6803F08D
:10124C000C03082B1CD1464B5B6803F48033002B3A
:10125C0016D1434B1B6803F00203002B05D07B68AF
:10126C001B69012B01D00123BAE13D4B1B6823F014
:10127C00F8027B685B69DB00394913430B603AE089
:10128C007B681B69002B20D0364B01221A60FFF7BC
:10129C003FFC386108E0FFF73BFC02463B69D31A80
:1012AC00022B01D903239BE12D4B1B6803F0020396
:1012BC00002BF0D02A4B1B6823F0F8027B685B698B
:1012CC00DB00274913430B6015E0264B00221A6004
:1012DC00FFF71EFC386108E0FFF71AFC02463B6979
:1012EC00D31A022B01D903237AE11D4B1B6803F09F
:1012FC000203002BF0D17B681B6803F00803002B62
:10130C003AD07B689B69002B19D0174B01221A60CD
:10131C00FFF7FEFB386108E0FFF7FAFB02463B697A
:10132C00D31A022B01D903235AE10D4B5B6A03F04C
:10133C000203002BF0D0012000F09AFA1CE00A4BBB
:10134C0000221A60FFF7E4FB38610FE0FFF7E0FBC7
:10135C0002463B69D31A022B08D9032340E100BF94
:10136C000010024000004242800442429E4B5B6AE5
:10137C0003F00203002BE9D17B681B6803F0040324
:10138C00002B00F0A6800023FB75974BDB6903F064
:10139C008053002B0DD1944BDB69934A43F080535F
:1013AC00D361914BDB6903F08053BB60BB680123B5
:1013BC00FB758E4B1B6803F48073002B18D18B4B81
:1013CC001B688A4A43F480731360FFF7A1FB3861F2
:1013DC0008E0FFF79DFB02463B69D31A642B01D949
:1013EC000323FDE0814B1B6803F48073002BF0D0CA
:1013FC007B68DB68012B06D17B4B1B6A7A4A43F076
:10140C00010313622DE07B68DB68002B0CD1764B5B
:10141C001B6A754A23F001031362734B1B6A724AF1
:10142C0023F0040313621CE07B68DB68052B0CD1F2
:10143C006D4B1B6A6C4A43F0040313626A4B1B6AC4
:10144C00694A43F0010313620BE0674B1B6A664A5F
:10145C0023F001031362644B1B6A634A23F00403F9
:10146C0013627B68DB68002B15D0FFF751FB3861EA
:10147C000AE0FFF74DFB02463B69D31A41F2883272
:10148C00934201D90323ABE0574B1B6A03F00203D1
:10149C00002BEED014E0FFF73BFB38610AE0FFF7BE
:1014AC0037FB02463B69D31A41F28832934201D989
:1014BC00032395E04C4B1B6A03F00203002BEED187
:1014CC00FB7D012B05D1484BDB69474A23F0805348
:1014DC00D3617B68DB69002B00F08180424B5B6839
:1014EC0003F00C03082B61D07B68DB69022B46D11F
:1014FC003F4B00221A60FFF70BFB386108E0FFF747
:10150C0007FB02463B69D31A022B01D9032367E080
:10151C00354B1B6803F00073002BF0D17B681B6A02
:10152C00B3F5803F08D1304B5B6823F400327B6805
:10153C009B682D4913434B602B4B5B6823F474124F
:10154C007B68196A7B685B6A0B43274913434B60C2
:10155C00274B01221A60FFF7DBFA386108E0FFF72E
:10156C00D7FA02463B69D31A022B01D9032337E081
:10157C001D4B1B6803F00073002BF0D02FE01C4BAD
:10158C0000221A60FFF7C4FA386108E0FFF7C0FACE
:10159C0002463B69D31A022B01D9032320E0124BDC
:1015AC001B6803F00073002BF0D118E07B68DB693B
:1015BC00012B01D1012313E00B4B5B68FB60FB6833
:1015CC0003F480327B681B6A9A4206D1FB6803F4F1
:1015DC0070127B685B6A9A4201D0012300E0002301
:1015EC0018461837BD4680BD001002400070004000
:1015FC006000424280B584B000AF786039607B688F
:10160C00002B01D10123D0E06A4B1B6803F00703C8
:10161C003A689A4210D9674B1B6823F00702654958
:10162C003B6813430B60634B1B6803F007033A687A
:10163C009A4201D00123B8E07B681B6803F00203D7
:10164C00002B20D07B681B6803F00403002B05D013
:10165C00594B5B68584A43F4E06353607B681B68E2
:10166C0003F00803002B05D0534B5B68524A43F43C
:10167C0060535360504B5B6823F0F0027B689B68AF
:10168C004D4913434B607B681B6803F00103002B2F
:10169C0040D07B685B68012B07D1474B1B6803F478
:1016AC000033002B15D101237FE07B685B68022B94
:1016BC0007D1414B1B6803F00073002B09D10123A8
:1016CC0073E03D4B1B6803F00203002B01D1012397
:1016DC006BE0394B5B6823F003027B685B6836492F
:1016EC0013434B60FFF714FAF8600AE0FFF710FAA7
:1016FC000246FB68D31A41F28832934201D9032384
:10170C0053E02D4B5B6803F00C027B685B689B001D
:10171C009A42EBD1274B1B6803F007033A689A42B5
:10172C0010D2244B1B6823F0070222493B68134359
:10173C000B60204B1B6803F007033A689A4201D0F8
:10174C00012332E07B681B6803F00403002B08D0F4
:10175C00194B5B6823F4E0627B68DB681649134322
:10176C004B607B681B6803F00803002B09D0124BFD
:10177C005B6823F460527B681B69DB000E491343E2
:10178C004B6000F021F802460B4B5B681B0903F021
:10179C000F030A49CB5C22FA03F3094A1360094B85
:1017AC001B681846FFF772F9002318461037BD4620
:1017BC0080BD00BF0020024000100240EC27000852
:1017CC00040000200800002080B487B000AF002384
:1017DC00FB600023BB6000237B6100237B60002344
:1017EC003B611E4B5B68FB60FB6803F00C03042B36
:1017FC0002D0082B03D027E0194B3B6127E0FB6894
:10180C009B0C03F00F03174AD35C7B60FB6803F45B
:10181C008033002B10D0114B5B685B0C03F0010381
:10182C00114AD35CBB607B680D4A02FB03F2BB68B8
:10183C00B2FBF3F37B6104E07B680C4A02FB03F31D
:10184C007B617B693B6102E0054B3B6100BF3B69FF
:10185C0018461C37BD4680BC704700BF00100240C4
:10186C0000127A00FC2700080C28000800093D0033
:10187C0080B485B000AF78600A4B1B680A4AA2FBA3
:10188C0003235B0A7A6802FB03F3FB6000BFFB686F
:10189C005A1EFA60002BF9D100BF00BF1437BD46A9
:1018AC0080BC704704000020D34D621080B582B01C
:1018BC0000AF78607B68002B01D1012341E07B688D
:1018CC0093F83D30DBB2002B06D17B68002283F805
:1018DC003C207868FFF70CF87B68022283F83D20E7
:1018EC007B681A687B6804331946104600F0CEFBFF
:1018FC007B68012283F846207B68012283F83E2016
:10190C007B68012283F83F207B68012283F840200A
:10191C007B68012283F841207B68012283F84220F6
:10192C007B68012283F843207B68012283F84420E2
:10193C007B68012283F845207B68012283F83D20D7
:10194C00002318460837BD4680BD80B582B000AF75
:10195C0078607B68002B01D1012341E07B6893F810
:10196C003D30DBB2002B06D17B68002283F83C2093
:10197C00786800F039F87B68022283F83D207B6898
:10198C001A687B6804331946104600F07FFB7B68AD
:10199C00012283F846207B68012283F83E207B6875
:1019AC00012283F83F207B68012283F840207B686A
:1019BC00012283F841207B68012283F842207B6856
:1019CC00012283F843207B68012283F844207B6842
:1019DC00012283F845207B68012283F83D200023F7
:1019EC0018460837BD4680BD80B483B000AF786020
:1019FC0000BF0C37BD4680BC7047000080B584B07A
:101A0C0000AF786039603B68002B09D17B6893F894
:101A1C003E30DBB2012B14BF01230023DBB222E0EA
:101A2C003B68042B09D17B6893F83F30DBB2012B68
:101A3C0014BF01230023DBB215E03B68082B09D14E
:101A4C007B6893F84030DBB2012B14BF01230023D9
:101A5C00DBB208E07B6893F84130DBB2012B14BF9A
:101A6C0001230023DBB2002B01D001235EE03B6895
:101A7C00002B04D17B68022283F83E2013E03B68E4
:101A8C00042B04D17B68022283F83F200BE03B68D7
:101A9C00082B04D17B68022283F8402003E07B688A
:101AAC00022283F841207B681B68012239681846A2
:101ABC0000F078FD7B681B681E4A934207D17B6857
:101ACC001B685A6C7B681B6842F400425A647B6842
:101ADC001B68184A93420ED07B681B68B3F1804F89
:101AEC0009D07B681B68144A934204D07B681B683E
:101AFC00124A934211D17B681B689B6803F0070361
:101B0C00FB60FB68062B10D07B681B681A687B682F
:101B1C001B6842F001021A6007E07B681B681A68B8
:101B2C007B681B6842F001021A60002318461037CC
:101B3C00BD4680BD002C0140000400400008004060
:101B4C0080B584B000AF78607B681B68DB68FB6095
:101B5C007B681B681B69BB60BB6803F00203002B2E
:101B6C0020D0FB6803F00203002B1BD07B681B68A2
:101B7C006FF002021A617B6801221A777B681B687E
:101B8C009B6903F00303002B03D0786800F063FA21
:101B9C0005E0786800F056FA786800F065FA7B6822
:101BAC0000221A77BB6803F00403002B20D0FB68DB
:101BBC0003F00403002B1BD07B681B686FF004023E
:101BCC001A617B6802221A777B681B689B6903F495
:101BDC004073002B03D0786800F03DFA05E078687C
:101BEC0000F030FA786800F03FFA7B6800221A7730
:101BFC00BB6803F00803002B20D0FB6803F008033C
:101C0C00002B1BD07B681B686FF008021A617B6885
:101C1C0004221A777B681B68DB6903F00303002B33
:101C2C0003D0786800F017FA05E0786800F00AFA3B
:101C3C00786800F019FA7B6800221A77BB6803F009
:101C4C001003002B20D0FB6803F01003002B1BD0DB
:101C5C007B681B686FF010021A617B6808221A7788
:101C6C007B681B68DB6903F44073002B03D0786836
:101C7C0000F0F1F905E0786800F0E4F9786800F01C
:101C8C00F3F97B6800221A77BB6803F00103002B81
:101C9C000CD0FB6803F00103002B07D07B681B689A
:101CAC006FF001021A61786800F0C3F9BB6803F0A9
:101CBC008003002B0CD0FB6803F08003002B07D0B3
:101CCC007B681B686FF080021A61786800F046FD33
:101CDC00BB6803F04003002B0CD0FB6803F04003FF
:101CEC00002B07D07B681B686FF040021A61786884
:101CFC0000F0C3F9BB6803F02003002B0CD0FB6889
:101D0C0003F02003002B07D07B681B686FF02002C8
:101D1C001A61786800F019FD00BF1037BD4680BD10
:101D2C0080B586B000AFF860B9607A600023FB75AF
:101D3C00FB6893F83C30012B01D10223AEE0FB6829
:101D4C00012283F83C207B680C2B00F29F8001A2BF
:101D5C0052F823F0951D0008991E0008991E0008E2
:101D6C00991E0008D51D0008991E0008991E000830
:101D7C00991E0008171E0008991E0008991E0008DD
:101D8C00991E0008571E0008FB681B68B9681846A6
:101D9C0000F0EAF9FB681B689A69FB681B6842F063
:101DAC0008029A61FB681B689A69FB681B6822F041
:101DBC0004029A61FB681B689969BB681A69FB6825
:101DCC001B680A439A6164E0FB681B68B968184693
:101DDC0000F030FAFB681B689A69FB681B6842F4D8
:101DEC0000629A61FB681B689A69FB681B6822F4A5
:101DFC0080629A61FB681B689969BB681B691A024F
:101E0C00FB681B680A439A6143E0FB681B68B9686E
:101E1C00184600F079FAFB681B68DA69FB681B68E6
:101E2C0042F00802DA61FB681B68DA69FB681B6820
:101E3C0022F00402DA61FB681B68D969BB681A6975
:101E4C00FB681B680A43DA6123E0FB681B68B9680E
:101E5C00184600F0C3FAFB681B68DA69FB681B685C
:101E6C0042F40062DA61FB681B68DA69FB681B6884
:101E7C0022F48062DA61FB681B68D969BB681B6954
:101E8C001A02FB681B680A43DA6102E00123FB7546
:101E9C0000BFFB68002283F83C20FB7D18461837F6
:101EAC00BD4680BD80B584B000AF7860396000233A
:101EBC00FB737B6893F83C30012B01D10223B4E017
:101ECC007B68012283F83C207B68022283F83D204A
:101EDC007B681B689B68BB60BB6823F07703BB60A7
:101EEC00BB6823F47F43BB607B681B68BA689A604D
:101EFC003B681B68B3F5005F3ED0B3F5005F00F2A2
:101F0C008780B3F5805F00F08680B3F5805F7FD863
:101F1C00702B1AD0702B7BD8602B50D0602B77D8BD
:101F2C00502B3CD0502B73D8402B58D0402B6FD813
:101F3C00302B64D0302B6BD8202B60D0202B67D863
:101F4C00002B5CD0102B5AD062E07B6818683B6881
:101F5C0099683B685A683B68DB6800F004FB7B6857
:101F6C001B689B68BB60BB6843F07703BB607B68F6
:101F7C001B68BA689A604FE07B6818683B68996880
:101F8C003B685A683B68DB6800F0EDFA7B681B68BD
:101F9C009A687B681B6842F480429A603CE07B68DC
:101FAC0018683B6859683B68DB681A4600F064FAAD
:101FBC007B681B685021184600F0BBFA2CE07B684C
:101FCC0018683B6859683B68DB681A4600F082FA6F
:101FDC007B681B686021184600F0ABFA1CE07B683C
:101FEC0018683B6859683B68DB681A4600F044FA8D
:101FFC007B681B684021184600F09BFA0CE07B685C
:10200C001A683B681B681946104600F092FA03E008
:10201C000123FB7300E000BF7B68012283F83D20A5
:10202C007B68002283F83C20FB7B18461037BD46AA
:10203C0080BD80B483B000AF786000BF0C37BD4664
:10204C0080BC704780B483B000AF786000BF0C37A1
:10205C00BD4680BC704780B483B000AF786000BFD1
:10206C000C37BD4680BC704780B483B000AF78603D
:10207C0000BF0C37BD4680BC704780B483B000AF46
:10208C00786000BF0C37BD4680BC704780B485B00B
:10209C0000AF786039607B681B68FB607B682F4AF7
:1020AC0093420BD07B68B3F1804F07D07B682C4AEE
:1020BC00934203D07B682B4A934208D1FB6823F0F0
:1020CC007003FB603B685B68FA681343FB607B68DA
:1020DC00224A93420BD07B68B3F1804F07D07B68C8
:1020EC001F4A934203D07B681E4A934208D1FB6877
:1020FC0023F44073FB603B68DB68FA681343FB60B6
:10210C00FB6823F080023B685B691343FB607B68D0
:10211C00FA681A603B689A687B68DA623B681A68EE
:10212C007B689A627B680D4A934203D13B681A69BB
:10213C007B681A637B6801225A617B681B6903F018
:10214C000103002B05D07B681B6923F001027B681F
:10215C001A6100BF1437BD4680BC7047002C01408B
:10216C00000400400008004080B487B000AF7860E5
:10217C0039607B681B6A7B617B681B6A23F00102F8
:10218C007B681A627B685B683B617B689B69FB6060
:10219C00FB6823F07003FB60FB6823F00303FB6018
:1021AC003B681B68FA681343FB607B6923F00203EE
:1021BC007B613B689B687A6913437B617B681C4A33
:1021CC0093420CD17B6923F008037B613B68DB688D
:1021DC007A6913437B617B6923F004037B617B6821
:1021EC00134A934211D13B6923F480733B613B69E1
:1021FC0023F400733B613B685B693A6913433B61B1
:10220C003B689B693A6913433B617B683A695A6046
:10221C007B68FA689A613B685A687B685A637B688A
:10222C007A691A6200BF1C37BD4680BC704700BF7C
:10223C00002C014080B487B000AF786039607B68B7
:10224C001B6A7B617B681B6A23F010027B681A6235
:10225C007B685B683B617B689B69FB60FB6823F474
:10226C00E043FB60FB6823F44073FB603B681B6836
:10227C001B02FA681343FB607B6923F020037B612C
:10228C003B689B681B017A6913437B617B681D4A21
:10229C0093420DD17B6923F080037B613B68DB6843
:1022AC001B017A6913437B617B6923F040037B61DB
:1022BC007B68144A934213D13B6923F480633B61DE
:1022CC003B6923F400633B613B685B699B003A69A3
:1022DC0013433B613B689B699B003A6913433B6129
:1022EC007B683A695A607B68FA689A613B685A68FD
:1022FC007B689A637B687A691A6200BF1C37BD469B
:10230C0080BC7047002C014080B487B000AF78606F
:10231C0039607B681B6A7B617B681B6A23F4807263
:10232C007B681A627B685B683B617B68DB69FB607E
:10233C00FB6823F07003FB60FB6823F00303FB6076
:10234C003B681B68FA681343FB607B6923F40073DA
:10235C007B613B689B681B027A6913437B617B68DA
:10236C001D4A93420DD17B6923F400637B613B686A
:10237C00DB681B027A6913437B617B6923F48063FE
:10238C007B617B68144A934213D13B6923F48053DD
:10239C003B613B6923F400533B613B685B691B0168
:1023AC003A6913433B613B689B691B013A691343D0
:1023BC003B617B683A695A607B68FA68DA613B6812
:1023CC005A687B68DA637B687A691A6200BF1C37CB
:1023DC00BD4680BC704700BF002C014080B487B064
:1023EC0000AF786039607B681B6A3B617B681B6A55
:1023FC0023F480527B681A627B685B687B617B6824
:10240C00DB69FB60FB6823F4E043FB60FB6823F4AF
:10241C004073FB603B681B681B02FA681343FB604C
:10242C003B6923F400533B613B689B681B033A698F
:10243C0013433B617B680F4A934209D17B6923F4B8
:10244C0080437B613B685B699B017A6913437B61C9
:10245C007B687A695A607B68FA68DA613B685A680B
:10246C007B681A647B683A691A6200BF1C37BD46E8
:10247C0080BC7047002C014080B487B000AFF8607E
:10248C00B9607A60FB681B6A7B61FB681B6A23F08E
:10249C000102FB681A62FB689B693B613B6923F094
:1024AC00F0033B617B681B013A6913433B617B6919
:1024BC0023F00A037B617A69BB6813437B61FB6879
:1024CC003A699A61FB687A691A6200BF1C37BD468B
:1024DC0080BC704780B487B000AFF860B9607A6098
:1024EC00FB681B6A7B61FB681B6A23F01002FB68AC
:1024FC001A62FB689B693B613B6923F470433B6147
:10250C007B681B033A6913433B617B6923F0A0038F
:10251C007B61BB681B017A6913437B61FB683A6979
:10252C009A61FB687A691A6200BF1C37BD4680BC91
:10253C00704780B485B000AF786039607B689B6869
:10254C00FB60FB6823F07003FB603A68FB68134385
:10255C0043F00703FB607B68FA689A6000BF14378E
:10256C00BD4680BC704780B487B000AFF860B960DE
:10257C007A603B60FB689B687B617B6923F47F43DB
:10258C007B613B681A027B681A43BB6813437A6908
:10259C0013437B61FB687A699A6000BF1C37BD46A8
:1025AC0080BC704780B487B000AFF860B9607A60C7
:1025BC00BB6803F01F03012202FA03F37B61FB6883
:1025CC001A6A7B69DB431A40FB681A62FB681A6A59
:1025DC00BB6803F01F03796801FA03F31A43FB6825
:1025EC001A6200BF1C37BD4680BC704780B485B0F2
:1025FC0000AF786039607B6893F83C30012B01D1D7
:10260C00022346E07B68012283F83C207B6802228F
:10261C0083F83D207B681B685B68FB607B681B68EC
:10262C009B68BB60FB6823F07003FB603B681B6816
:10263C00FA681343FB607B681B68FA685A607B6816
:10264C001B68164A93420ED07B681B68B3F1804F0F
:10265C0009D07B681B68124A934204D07B681B68C4
:10266C00104A93420CD1BB6823F08003BB603B68DB
:10267C005B68BA681343BB607B681B68BA689A6076
:10268C007B68012283F83D207B68002283F83C2084
:10269C00002318461437BD4680BC7047002C0140FF
:1026AC00000400400008004080B485B000AF7860A2
:1026BC0039600023FB607B6893F83C30012B01D11F
:1026CC0002233DE07B68012283F83C20FB6823F069
:1026DC00FF023B68DB681343FB60FB6823F440722A
:1026EC003B689B681343FB60FB6823F480623B6888
:1026FC005B681343FB60FB6823F400623B681B6858
:10270C001343FB60FB6823F480523B681B69134343
:10271C00FB60FB6823F400523B685B691343FB606E
:10272C00FB6823F480423B68DB691343FB607B68E6
:10273C001B68FA685A647B68002283F83C200023EB
:10274C0018461437BD4680BC704780B483B000AFC8
:10275C00786000BF0C37BD4680BC704780B483B036
:10276C0000AF786000BF0C37BD4680BC70470000DE
:10277C0070B500260C4D0D4C641BA410A64209D15B
:10278C0000F022F800260A4D0A4C641BA410A64245
:10279C0005D170BD55F8043B98470136EEE755F866
:1027AC00043B98470136F2E710280008102800086F
:1027BC00102800081428000803460244934200D154
:1027CC00704703F8011BF9E7F8B500BFF8BC08BC6B
:1027DC009E467047F8B500BFF8BC08BC9E467047D3
:1027EC0000000000000000000102030406070809B5
:1027FC0002030405060708090A0B0C0D0E0F101036
:04280C0001020000C5
:04281000310100088A
:042814000D010008AA
:1028180000B0814500127A0010000000010000009D
:0400000508000A21C4
:00000001FF
